{
  "address": "0x3300a0e41F13117788Cfb1D9C215d10890c623d9",
  "abi": [
    {
      "inputs": [
        {
          "internalType": "address",
          "name": "_owner",
          "type": "address"
        },
        {
          "internalType": "address",
          "name": "_platformWallet",
          "type": "address"
        }
      ],
      "stateMutability": "nonpayable",
      "type": "constructor"
    },
    {
      "anonymous": false,
      "inputs": [
        {
          "indexed": true,
          "internalType": "uint256",
          "name": "challengeId",
          "type": "uint256"
        },
        {
          "indexed": true,
          "internalType": "address",
          "name": "creator",
          "type": "address"
        },
        {
          "indexed": false,
          "internalType": "string",
          "name": "imageUrl",
          "type": "string"
        },
        {
          "indexed": false,
          "internalType": "uint256",
          "name": "initialPrizePool",
          "type": "uint256"
        }
      ],
      "name": "ChallengeCreated",
      "type": "event"
    },
    {
      "anonymous": false,
      "inputs": [
        {
          "indexed": true,
          "internalType": "uint256",
          "name": "challengeId",
          "type": "uint256"
        },
        {
          "indexed": true,
          "internalType": "address",
          "name": "creator",
          "type": "address"
        },
        {
          "indexed": false,
          "internalType": "uint256",
          "name": "creatorAmount",
          "type": "uint256"
        },
        {
          "indexed": true,
          "internalType": "address",
          "name": "platform",
          "type": "address"
        },
        {
          "indexed": false,
          "internalType": "uint256",
          "name": "platformAmount",
          "type": "uint256"
        }
      ],
      "name": "FeeDistributed",
      "type": "event"
    },
    {
      "anonymous": false,
      "inputs": [
        {
          "indexed": true,
          "internalType": "uint256",
          "name": "challengeId",
          "type": "uint256"
        },
        {
          "indexed": true,
          "internalType": "address",
          "name": "guesser",
          "type": "address"
        },
        {
          "indexed": false,
          "internalType": "string",
          "name": "guessString",
          "type": "string"
        },
        {
          "indexed": false,
          "internalType": "bool",
          "name": "isCorrect",
          "type": "bool"
        }
      ],
      "name": "GuessMade",
      "type": "event"
    },
    {
      "anonymous": false,
      "inputs": [
        {
          "indexed": true,
          "internalType": "uint256",
          "name": "challengeId",
          "type": "uint256"
        },
        {
          "indexed": true,
          "internalType": "address",
          "name": "winner",
          "type": "address"
        },
        {
          "indexed": false,
          "internalType": "uint256",
          "name": "amount",
          "type": "uint256"
        }
      ],
      "name": "PrizeAwarded",
      "type": "event"
    },
    {
      "anonymous": false,
      "inputs": [
        {
          "indexed": true,
          "internalType": "uint256",
          "name": "challengeId",
          "type": "uint256"
        },
        {
          "indexed": true,
          "internalType": "address",
          "name": "contributor",
          "type": "address"
        },
        {
          "indexed": false,
          "internalType": "uint256",
          "name": "amount",
          "type": "uint256"
        }
      ],
      "name": "PrizePoolIncreased",
      "type": "event"
    },
    {
      "inputs": [
        {
          "internalType": "uint256",
          "name": "",
          "type": "uint256"
        }
      ],
      "name": "challenges",
      "outputs": [
        {
          "internalType": "uint256",
          "name": "id",
          "type": "uint256"
        },
        {
          "internalType": "address",
          "name": "creator",
          "type": "address"
        },
        {
          "internalType": "bytes32",
          "name": "hashedPrompt",
          "type": "bytes32"
        },
        {
          "internalType": "string",
          "name": "imageUrl",
          "type": "string"
        },
        {
          "internalType": "uint256",
          "name": "prizePool",
          "type": "uint256"
        },
        {
          "internalType": "bool",
          "name": "isActive",
          "type": "bool"
        },
        {
          "internalType": "uint256",
          "name": "creationTime",
          "type": "uint256"
        }
      ],
      "stateMutability": "view",
      "type": "function"
    },
    {
      "inputs": [
        {
          "internalType": "bytes32",
          "name": "_hashedPrompt",
          "type": "bytes32"
        },
        {
          "internalType": "string",
          "name": "_imageUrl",
          "type": "string"
        },
        {
          "internalType": "uint256",
          "name": "_initialPrizePool",
          "type": "uint256"
        }
      ],
      "name": "createChallenge",
      "outputs": [],
      "stateMutability": "payable",
      "type": "function"
    },
    {
      "inputs": [
        {
          "internalType": "uint256",
          "name": "_challengeId",
          "type": "uint256"
        }
      ],
      "name": "getChallenge",
      "outputs": [
        {
          "components": [
            {
              "internalType": "uint256",
              "name": "id",
              "type": "uint256"
            },
            {
              "internalType": "address",
              "name": "creator",
              "type": "address"
            },
            {
              "internalType": "bytes32",
              "name": "hashedPrompt",
              "type": "bytes32"
            },
            {
              "internalType": "string",
              "name": "imageUrl",
              "type": "string"
            },
            {
              "internalType": "uint256",
              "name": "prizePool",
              "type": "uint256"
            },
            {
              "internalType": "bool",
              "name": "isActive",
              "type": "bool"
            },
            {
              "internalType": "uint256",
              "name": "creationTime",
              "type": "uint256"
            }
          ],
          "internalType": "struct YourContract.Challenge",
          "name": "",
          "type": "tuple"
        }
      ],
      "stateMutability": "view",
      "type": "function"
    },
    {
      "inputs": [
        {
          "internalType": "uint256",
          "name": "_challengeId",
          "type": "uint256"
        },
        {
          "internalType": "string",
          "name": "_guess",
          "type": "string"
        }
      ],
      "name": "makeGuess",
      "outputs": [],
      "stateMutability": "payable",
      "type": "function"
    },
    {
      "inputs": [],
      "name": "owner",
      "outputs": [
        {
          "internalType": "address",
          "name": "",
          "type": "address"
        }
      ],
      "stateMutability": "view",
      "type": "function"
    },
    {
      "inputs": [],
      "name": "platformWallet",
      "outputs": [
        {
          "internalType": "address",
          "name": "",
          "type": "address"
        }
      ],
      "stateMutability": "view",
      "type": "function"
    },
    {
      "inputs": [],
      "name": "withdrawContractBalance",
      "outputs": [],
      "stateMutability": "nonpayable",
      "type": "function"
    },
    {
      "stateMutability": "payable",
      "type": "receive"
    }
  ],
  "transactionHash": "0xd180c12229af25c0dea3220b4df07d939f7530227e81f68b4416db6946daef75",
  "args": [
    "0x0dfAE86c7d9698FDf3923aFBa12295C73869C8B6",
    "0xd2C02DBAA4bAf7984eC5CA471C6d0ac7baa58cDd"
  ],
  "numDeployments": 3,
  "solcInputHash": "91be356e4b7d9352cd7f2977025e3a35",
  "bytecode": "0x60a06040526001805534801561001457600080fd5b506040516111af3803806111af83398101604081905261003391610077565b6001600160a01b03918216608052600080546001600160a01b031916919092161790556100aa565b80516001600160a01b038116811461007257600080fd5b919050565b6000806040838503121561008a57600080fd5b6100938361005b565b91506100a16020840161005b565b90509250929050565b6080516110dd6100d26000396000818160f001528181610ad20152610b3c01526110dd6000f3fe6080604052600436106100745760003560e01c80638da5cb5b1161004e5780638da5cb5b146100de5780638f1d37761461012a578063bfab3db91461015d578063fa2af9da1461017257600080fd5b80631bdd4b741461008057806331b78cad146100b657806337895580146100cb57600080fd5b3661007b57005b600080fd5b34801561008c57600080fd5b506100a061009b366004610c0a565b610192565b6040516100ad9190610c73565b60405180910390f35b6100c96100c4366004610d85565b610322565b005b6100c96100d9366004610dd5565b6104f1565b3480156100ea57600080fd5b506101127f000000000000000000000000000000000000000000000000000000000000000081565b6040516001600160a01b0390911681526020016100ad565b34801561013657600080fd5b5061014a610145366004610c0a565b6109f3565b6040516100ad9796959493929190610e1c565b34801561016957600080fd5b506100c9610ac7565b34801561017e57600080fd5b50600054610112906001600160a01b031681565b6040805160e0810182526000808252602082018190529181018290526060808201526080810182905260a0810182905260c08101919091526000821180156101db575060015482105b6102235760405162461bcd60e51b8152602060048201526014602482015273125b9d985b1a590818da185b1b195b99d948125160621b60448201526064015b60405180910390fd5b600082815260026020818152604092839020835160e0810185528154815260018201546001600160a01b031692810192909252918201549281019290925260038101805460608401919061027690610e68565b80601f01602080910402602001604051908101604052809291908181526020018280546102a290610e68565b80156102ef5780601f106102c4576101008083540402835291602001916102ef565b820191906000526020600020905b8154815290600101906020018083116102d257829003601f168201915b505050918352505060048201546020820152600582015460ff161515604082015260069091015460609091015292915050565b60008251116103735760405162461bcd60e51b815260206004820152601960248201527f496d6167652055524c2063616e6e6f7420626520656d70747900000000000000604482015260640161021a565b826103c05760405162461bcd60e51b815260206004820152601d60248201527f4861736865642070726f6d70742063616e6e6f7420626520656d707479000000604482015260640161021a565b6001546040805160e08101825282815233602082015290810185905260608101849052608081016103f18434610eb8565b815260016020808301829052426040938401526000858152600280835290849020855181559185015192820180546001600160a01b0319166001600160a01b03909416939093179092559183015190820155606082015160038201906104579082610f20565b506080820151600482015560a082015160058201805460ff191691151591909117905560c0909101516006909101556001805490600061049683610fe0565b909155505060008181526002602052604090819020600401549051339183917ffe0a3e530e7044cae37836e33d826fa2be2dcfad9073a24529dab3a4ac2e878b916104e391889190610ff9565b60405180910390a350505050565b600082118015610502575060015482105b6105455760405162461bcd60e51b8152602060048201526014602482015273125b9d985b1a590818da185b1b195b99d948125160621b604482015260640161021a565b6000828152600260205260409020600581015460ff166105a75760405162461bcd60e51b815260206004820152601760248201527f4368616c6c656e6765206973206e6f7420616374697665000000000000000000604482015260640161021a565b6004810154806106135760405162461bcd60e51b815260206004820152603160248201527f4368616c6c656e676520686173206e6f207072697a6520706f6f6c2c2063616e6044820152706e6f742063616c63756c6174652066656560781b606482015260840161021a565b6000610620600a8361101b565b90508034146106715760405162461bcd60e51b815260206004820152601860248201527f496e636f7272656374206775657373206665652073656e740000000000000000604482015260640161021a565b6000606461068083606261103d565b61068a919061101b565b905060006106988284611054565b60018601546040519192506000916001600160a01b039091169084908381818185875af1925050503d80600081146106ec576040519150601f19603f3d011682016040523d82523d6000602084013e6106f1565b606091505b50509050806107425760405162461bcd60e51b815260206004820152601d60248201527f4661696c656420746f2073656e642066656520746f2063726561746f72000000604482015260640161021a565b600080546040516001600160a01b039091169084908381818185875af1925050503d806000811461078f576040519150601f19603f3d011682016040523d82523d6000602084013e610794565b606091505b50509050806107e55760405162461bcd60e51b815260206004820152601e60248201527f4661696c656420746f2073656e642066656520746f20706c6174666f726d0000604482015260640161021a565b600054600188015460408051878152602081018790526001600160a01b0393841693909216918c917f774904f16eef75bca662fd09e1928f43ddef7436d8db297c18e467173534fcff910160405180910390a460008860405160200161084b9190611067565b604051602081830303815290604052805190602001209050876002015481036109a15760058801805460ff19169055600488018054600091829055604051909190339083908381818185875af1925050503d80600081146108c8576040519150601f19603f3d011682016040523d82523d6000602084013e6108cd565b606091505b505090508061091e5760405162461bcd60e51b815260206004820152601e60248201527f4661696c656420746f2073656e64207072697a6520746f2077696e6e65720000604482015260640161021a565b336001600160a01b03168c7f7bd56be7a13225398cf0429b14ad0ffa7393155d79219eccef582b51931762268d600160405161095b929190611083565b60405180910390a360405182815233908d907ff0594d38dd7623b3da8f16f26b64fefca68a75046d6fc9b91a1433ef089f39d99060200160405180910390a350506109e7565b336001600160a01b03168a7f7bd56be7a13225398cf0429b14ad0ffa7393155d79219eccef582b51931762268b60006040516109de929190611083565b60405180910390a35b50505050505050505050565b6002602081905260009182526040909120805460018201549282015460038301805492946001600160a01b0316939192610a2c90610e68565b80601f0160208091040260200160405190810160405280929190818152602001828054610a5890610e68565b8015610aa55780601f10610a7a57610100808354040283529160200191610aa5565b820191906000526020600020905b815481529060010190602001808311610a8857829003601f168201915b50505050600483015460058401546006909401549293909260ff909116915087565b336001600160a01b037f00000000000000000000000000000000000000000000000000000000000000001614610b385760405162461bcd60e51b81526020600482015260166024820152752737ba103a34329031b7b73a3930b1ba1037bbb732b960511b604482015260640161021a565b60007f00000000000000000000000000000000000000000000000000000000000000006001600160a01b03164760405160006040518083038185875af1925050503d8060008114610ba5576040519150601f19603f3d011682016040523d82523d6000602084013e610baa565b606091505b5050905080610c075760405162461bcd60e51b815260206004820152602360248201527f4661696c656420746f20776974686472617720636f6e74726163742062616c616044820152626e636560e81b606482015260840161021a565b50565b600060208284031215610c1c57600080fd5b5035919050565b60005b83811015610c3e578181015183820152602001610c26565b50506000910152565b60008151808452610c5f816020860160208601610c23565b601f01601f19169290920160200192915050565b602081528151602082015260018060a01b036020830151166040820152604082015160608201526000606083015160e06080840152610cb6610100840182610c47565b9050608084015160a084015260a0840151151560c084015260c084015160e08401528091505092915050565b634e487b7160e01b600052604160045260246000fd5b600082601f830112610d0957600080fd5b813567ffffffffffffffff80821115610d2457610d24610ce2565b604051601f8301601f19908116603f01168101908282118183101715610d4c57610d4c610ce2565b81604052838152866020858801011115610d6557600080fd5b836020870160208301376000602085830101528094505050505092915050565b600080600060608486031215610d9a57600080fd5b83359250602084013567ffffffffffffffff811115610db857600080fd5b610dc486828701610cf8565b925050604084013590509250925092565b60008060408385031215610de857600080fd5b82359150602083013567ffffffffffffffff811115610e0657600080fd5b610e1285828601610cf8565b9150509250929050565b87815260018060a01b038716602082015285604082015260e060608201526000610e4960e0830187610c47565b60808301959095525091151560a083015260c090910152949350505050565b600181811c90821680610e7c57607f821691505b602082108103610e9c57634e487b7160e01b600052602260045260246000fd5b50919050565b634e487b7160e01b600052601160045260246000fd5b80820180821115610ecb57610ecb610ea2565b92915050565b601f821115610f1b57600081815260208120601f850160051c81016020861015610ef85750805b601f850160051c820191505b81811015610f1757828155600101610f04565b5050505b505050565b815167ffffffffffffffff811115610f3a57610f3a610ce2565b610f4e81610f488454610e68565b84610ed1565b602080601f831160018114610f835760008415610f6b5750858301515b600019600386901b1c1916600185901b178555610f17565b600085815260208120601f198616915b82811015610fb257888601518255948401946001909101908401610f93565b5085821015610fd05787850151600019600388901b60f8161c191681555b5050505050600190811b01905550565b600060018201610ff257610ff2610ea2565b5060010190565b60408152600061100c6040830185610c47565b90508260208301529392505050565b60008261103857634e487b7160e01b600052601260045260246000fd5b500490565b8082028115828204841417610ecb57610ecb610ea2565b81810381811115610ecb57610ecb610ea2565b60008251611079818460208701610c23565b9190910192915050565b6040815260006110966040830185610c47565b90508215156020830152939250505056fea2646970667358221220c8486426f4887e453aa8caf8f58a565d467d0d5146de558439fc9763fab6523464736f6c63430008140033",
  "devdoc": {
    "kind": "dev",
    "methods": {},
    "version": 1
  },
  "userdoc": {
    "kind": "user",
    "methods": {},
    "version": 1
  },
  "storageLayout": {
    "storage": [
      {
        "astId": 6,
        "contract": "contracts/YourContract.sol:YourContract",
        "label": "platformWallet",
        "offset": 0,
        "slot": "0",
        "type": "t_address"
      },
      {
        "astId": 24,
        "contract": "contracts/YourContract.sol:YourContract",
        "label": "nextChallengeId",
        "offset": 0,
        "slot": "1",
        "type": "t_uint256"
      },
      {
        "astId": 29,
        "contract": "contracts/YourContract.sol:YourContract",
        "label": "challenges",
        "offset": 0,
        "slot": "2",
        "type": "t_mapping(t_uint256,t_struct(Challenge)21_storage)"
      }
    ],
    "types": {
      "t_address": {
        "encoding": "inplace",
        "label": "address",
        "numberOfBytes": "20"
      },
      "t_bool": {
        "encoding": "inplace",
        "label": "bool",
        "numberOfBytes": "1"
      },
      "t_bytes32": {
        "encoding": "inplace",
        "label": "bytes32",
        "numberOfBytes": "32"
      },
      "t_mapping(t_uint256,t_struct(Challenge)21_storage)": {
        "encoding": "mapping",
        "key": "t_uint256",
        "label": "mapping(uint256 => struct YourContract.Challenge)",
        "numberOfBytes": "32",
        "value": "t_struct(Challenge)21_storage"
      },
      "t_string_storage": {
        "encoding": "bytes",
        "label": "string",
        "numberOfBytes": "32"
      },
      "t_struct(Challenge)21_storage": {
        "encoding": "inplace",
        "label": "struct YourContract.Challenge",
        "members": [
          {
            "astId": 8,
            "contract": "contracts/YourContract.sol:YourContract",
            "label": "id",
            "offset": 0,
            "slot": "0",
            "type": "t_uint256"
          },
          {
            "astId": 10,
            "contract": "contracts/YourContract.sol:YourContract",
            "label": "creator",
            "offset": 0,
            "slot": "1",
            "type": "t_address"
          },
          {
            "astId": 12,
            "contract": "contracts/YourContract.sol:YourContract",
            "label": "hashedPrompt",
            "offset": 0,
            "slot": "2",
            "type": "t_bytes32"
          },
          {
            "astId": 14,
            "contract": "contracts/YourContract.sol:YourContract",
            "label": "imageUrl",
            "offset": 0,
            "slot": "3",
            "type": "t_string_storage"
          },
          {
            "astId": 16,
            "contract": "contracts/YourContract.sol:YourContract",
            "label": "prizePool",
            "offset": 0,
            "slot": "4",
            "type": "t_uint256"
          },
          {
            "astId": 18,
            "contract": "contracts/YourContract.sol:YourContract",
            "label": "isActive",
            "offset": 0,
            "slot": "5",
            "type": "t_bool"
          },
          {
            "astId": 20,
            "contract": "contracts/YourContract.sol:YourContract",
            "label": "creationTime",
            "offset": 0,
            "slot": "6",
            "type": "t_uint256"
          }
        ],
        "numberOfBytes": "224"
      },
      "t_uint256": {
        "encoding": "inplace",
        "label": "uint256",
        "numberOfBytes": "32"
      }
    }
  }
}