{
  "address": "0x1f10F3Ba7ACB61b2F50B9d6DdCf91a6f787C0E82",
  "abi": [
    {
      "inputs": [
        {
          "internalType": "address",
          "name": "_owner",
          "type": "address"
        }
      ],
      "stateMutability": "nonpayable",
      "type": "constructor"
    },
    {
      "anonymous": false,
      "inputs": [
        {
          "indexed": true,
          "internalType": "uint256",
          "name": "challengeId",
          "type": "uint256"
        },
        {
          "indexed": true,
          "internalType": "address",
          "name": "creator",
          "type": "address"
        },
        {
          "indexed": false,
          "internalType": "string",
          "name": "imageUrl",
          "type": "string"
        },
        {
          "indexed": false,
          "internalType": "uint256",
          "name": "initialPrizePool",
          "type": "uint256"
        }
      ],
      "name": "ChallengeCreated",
      "type": "event"
    },
    {
      "anonymous": false,
      "inputs": [
        {
          "indexed": true,
          "internalType": "uint256",
          "name": "challengeId",
          "type": "uint256"
        },
        {
          "indexed": true,
          "internalType": "address",
          "name": "guesser",
          "type": "address"
        },
        {
          "indexed": false,
          "internalType": "string",
          "name": "guessString",
          "type": "string"
        },
        {
          "indexed": false,
          "internalType": "bool",
          "name": "isCorrect",
          "type": "bool"
        }
      ],
      "name": "GuessMade",
      "type": "event"
    },
    {
      "anonymous": false,
      "inputs": [
        {
          "indexed": true,
          "internalType": "uint256",
          "name": "challengeId",
          "type": "uint256"
        },
        {
          "indexed": true,
          "internalType": "address",
          "name": "winner",
          "type": "address"
        },
        {
          "indexed": false,
          "internalType": "uint256",
          "name": "amount",
          "type": "uint256"
        }
      ],
      "name": "PrizeAwarded",
      "type": "event"
    },
    {
      "anonymous": false,
      "inputs": [
        {
          "indexed": true,
          "internalType": "uint256",
          "name": "challengeId",
          "type": "uint256"
        },
        {
          "indexed": true,
          "internalType": "address",
          "name": "contributor",
          "type": "address"
        },
        {
          "indexed": false,
          "internalType": "uint256",
          "name": "amount",
          "type": "uint256"
        }
      ],
      "name": "PrizePoolIncreased",
      "type": "event"
    },
    {
      "inputs": [],
      "name": "GUESS_FEE",
      "outputs": [
        {
          "internalType": "uint256",
          "name": "",
          "type": "uint256"
        }
      ],
      "stateMutability": "view",
      "type": "function"
    },
    {
      "inputs": [
        {
          "internalType": "uint256",
          "name": "",
          "type": "uint256"
        }
      ],
      "name": "challenges",
      "outputs": [
        {
          "internalType": "uint256",
          "name": "id",
          "type": "uint256"
        },
        {
          "internalType": "address",
          "name": "creator",
          "type": "address"
        },
        {
          "internalType": "bytes32",
          "name": "hashedPrompt",
          "type": "bytes32"
        },
        {
          "internalType": "string",
          "name": "imageUrl",
          "type": "string"
        },
        {
          "internalType": "uint256",
          "name": "prizePool",
          "type": "uint256"
        },
        {
          "internalType": "bool",
          "name": "isActive",
          "type": "bool"
        },
        {
          "internalType": "uint256",
          "name": "creationTime",
          "type": "uint256"
        }
      ],
      "stateMutability": "view",
      "type": "function"
    },
    {
      "inputs": [
        {
          "internalType": "bytes32",
          "name": "_hashedPrompt",
          "type": "bytes32"
        },
        {
          "internalType": "string",
          "name": "_imageUrl",
          "type": "string"
        },
        {
          "internalType": "uint256",
          "name": "_initialPrizePool",
          "type": "uint256"
        }
      ],
      "name": "createChallenge",
      "outputs": [],
      "stateMutability": "payable",
      "type": "function"
    },
    {
      "inputs": [
        {
          "internalType": "uint256",
          "name": "_challengeId",
          "type": "uint256"
        }
      ],
      "name": "getChallenge",
      "outputs": [
        {
          "components": [
            {
              "internalType": "uint256",
              "name": "id",
              "type": "uint256"
            },
            {
              "internalType": "address",
              "name": "creator",
              "type": "address"
            },
            {
              "internalType": "bytes32",
              "name": "hashedPrompt",
              "type": "bytes32"
            },
            {
              "internalType": "string",
              "name": "imageUrl",
              "type": "string"
            },
            {
              "internalType": "uint256",
              "name": "prizePool",
              "type": "uint256"
            },
            {
              "internalType": "bool",
              "name": "isActive",
              "type": "bool"
            },
            {
              "internalType": "uint256",
              "name": "creationTime",
              "type": "uint256"
            }
          ],
          "internalType": "struct YourContract.Challenge",
          "name": "",
          "type": "tuple"
        }
      ],
      "stateMutability": "view",
      "type": "function"
    },
    {
      "inputs": [
        {
          "internalType": "uint256",
          "name": "_challengeId",
          "type": "uint256"
        },
        {
          "internalType": "string",
          "name": "_guess",
          "type": "string"
        }
      ],
      "name": "makeGuess",
      "outputs": [],
      "stateMutability": "payable",
      "type": "function"
    },
    {
      "inputs": [],
      "name": "owner",
      "outputs": [
        {
          "internalType": "address",
          "name": "",
          "type": "address"
        }
      ],
      "stateMutability": "view",
      "type": "function"
    },
    {
      "inputs": [],
      "name": "withdrawContractBalance",
      "outputs": [],
      "stateMutability": "nonpayable",
      "type": "function"
    },
    {
      "stateMutability": "payable",
      "type": "receive"
    }
  ],
  "transactionHash": "0xd1655f6d9e347faff4ac9a60e43c65261c98d70b6c0ddb6d84c5c30ec151f4d8",
  "args": [
    "0xf39Fd6e51aad88F6F4ce6aB8827279cffFb92266"
  ],
  "numDeployments": 1,
  "solcInputHash": "ce90582d8fc6f2bd5854b8386d4f25d7",
  "bytecode": "0x60a0604052600160005534801561001557600080fd5b50604051610f67380380610f6783398101604081905261003491610045565b6001600160a01b0316608052610075565b60006020828403121561005757600080fd5b81516001600160a01b038116811461006e57600080fd5b9392505050565b608051610eca61009d6000396000818160f00152818161090b01526109750152610eca6000f3fe6080604052600436106100745760003560e01c80638da5cb5b1161004e5780638da5cb5b146100de5780638f1d37761461012a57806394891b0c1461015d578063bfab3db91461018757600080fd5b80631bdd4b741461008057806331b78cad146100b657806337895580146100cb57600080fd5b3661007b57005b600080fd5b34801561008c57600080fd5b506100a061009b366004610a43565b61019c565b6040516100ad9190610aac565b60405180910390f35b6100c96100c4366004610bbe565b61032f565b005b6100c96100d9366004610c0e565b6104fb565b3480156100ea57600080fd5b506101127f000000000000000000000000000000000000000000000000000000000000000081565b6040516001600160a01b0390911681526020016100ad565b34801561013657600080fd5b5061014a610145366004610a43565b61082c565b6040516100ad9796959493929190610c55565b34801561016957600080fd5b5061017967016345785d8a000081565b6040519081526020016100ad565b34801561019357600080fd5b506100c9610900565b6040805160e0810182526000808252602082018190529181018290526060808201526080810182905260a0810182905260c08101919091526000821180156101e5575060005482105b61022d5760405162461bcd60e51b8152602060048201526014602482015273125b9d985b1a590818da185b1b195b99d948125160621b60448201526064015b60405180910390fd5b600082815260016020818152604092839020835160e08101855281548152928101546001600160a01b03169183019190915260028101549282019290925260038201805491929160608401919061028390610ca1565b80601f01602080910402602001604051908101604052809291908181526020018280546102af90610ca1565b80156102fc5780601f106102d1576101008083540402835291602001916102fc565b820191906000526020600020905b8154815290600101906020018083116102df57829003601f168201915b505050918352505060048201546020820152600582015460ff161515604082015260069091015460609091015292915050565b60008251116103805760405162461bcd60e51b815260206004820152601960248201527f496d6167652055524c2063616e6e6f7420626520656d707479000000000000006044820152606401610224565b826103cd5760405162461bcd60e51b815260206004820152601d60248201527f4861736865642070726f6d70742063616e6e6f7420626520656d7074790000006044820152606401610224565b6000546040805160e08101825282815233602082015290810185905260608101849052608081016103fe8434610cf1565b815260016020808301829052426040938401526000858152828252839020845181559084015191810180546001600160a01b0319166001600160a01b0390931692909217909155908201516002820155606082015160038201906104629082610d59565b506080820151600482015560a082015160058201805460ff191691151591909117905560c0909101516006909101556000805490806104a083610e19565b909155505060008181526001602052604090819020600401549051339183917ffe0a3e530e7044cae37836e33d826fa2be2dcfad9073a24529dab3a4ac2e878b916104ed91889190610e32565b60405180910390a350505050565b60008211801561050c575060005482105b61054f5760405162461bcd60e51b8152602060048201526014602482015273125b9d985b1a590818da185b1b195b99d948125160621b6044820152606401610224565b6000828152600160205260409020600581015460ff166105b15760405162461bcd60e51b815260206004820152601760248201527f4368616c6c656e6765206973206e6f74206163746976650000000000000000006044820152606401610224565b67016345785d8a000034146106085760405162461bcd60e51b815260206004820152601860248201527f496e636f7272656374206775657373206665652073656e7400000000000000006044820152606401610224565b60008260405160200161061b9190610e54565b6040516020818303038152906040528051906020012090508160020154810361078a5760058201805460ff1916905560048201546000906106659067016345785d8a000090610cf1565b60006004850181905560405191925090339083908381818185875af1925050503d80600081146106b1576040519150601f19603f3d011682016040523d82523d6000602084013e6106b6565b606091505b50509050806107075760405162461bcd60e51b815260206004820152601e60248201527f4661696c656420746f2073656e64207072697a6520746f2077696e6e657200006044820152606401610224565b336001600160a01b0316867f7bd56be7a13225398cf0429b14ad0ffa7393155d79219eccef582b5193176226876001604051610744929190610e70565b60405180910390a3604051828152339087907ff0594d38dd7623b3da8f16f26b64fefca68a75046d6fc9b91a1433ef089f39d99060200160405180910390a35050610826565b67016345785d8a00008260040160008282546107a69190610cf1565b9091555050604051339085907f7bd56be7a13225398cf0429b14ad0ffa7393155d79219eccef582b5193176226906107e2908790600090610e70565b60405180910390a360405167016345785d8a00008152339085907fc8b2a326fd9dcc18193cdcc37c4acf9f02b46b2e74171967b16d948981ba186f906020016104ed565b50505050565b600160208190526000918252604090912080549181015460028201546003830180546001600160a01b0390931693919261086590610ca1565b80601f016020809104026020016040519081016040528092919081815260200182805461089190610ca1565b80156108de5780601f106108b3576101008083540402835291602001916108de565b820191906000526020600020905b8154815290600101906020018083116108c157829003601f168201915b50505050600483015460058401546006909401549293909260ff909116915087565b336001600160a01b037f000000000000000000000000000000000000000000000000000000000000000016146109715760405162461bcd60e51b81526020600482015260166024820152752737ba103a34329031b7b73a3930b1ba1037bbb732b960511b6044820152606401610224565b60007f00000000000000000000000000000000000000000000000000000000000000006001600160a01b03164760405160006040518083038185875af1925050503d80600081146109de576040519150601f19603f3d011682016040523d82523d6000602084013e6109e3565b606091505b5050905080610a405760405162461bcd60e51b815260206004820152602360248201527f4661696c656420746f20776974686472617720636f6e74726163742062616c616044820152626e636560e81b6064820152608401610224565b50565b600060208284031215610a5557600080fd5b5035919050565b60005b83811015610a77578181015183820152602001610a5f565b50506000910152565b60008151808452610a98816020860160208601610a5c565b601f01601f19169290920160200192915050565b602081528151602082015260018060a01b036020830151166040820152604082015160608201526000606083015160e06080840152610aef610100840182610a80565b9050608084015160a084015260a0840151151560c084015260c084015160e08401528091505092915050565b634e487b7160e01b600052604160045260246000fd5b600082601f830112610b4257600080fd5b813567ffffffffffffffff80821115610b5d57610b5d610b1b565b604051601f8301601f19908116603f01168101908282118183101715610b8557610b85610b1b565b81604052838152866020858801011115610b9e57600080fd5b836020870160208301376000602085830101528094505050505092915050565b600080600060608486031215610bd357600080fd5b83359250602084013567ffffffffffffffff811115610bf157600080fd5b610bfd86828701610b31565b925050604084013590509250925092565b60008060408385031215610c2157600080fd5b82359150602083013567ffffffffffffffff811115610c3f57600080fd5b610c4b85828601610b31565b9150509250929050565b87815260018060a01b038716602082015285604082015260e060608201526000610c8260e0830187610a80565b60808301959095525091151560a083015260c090910152949350505050565b600181811c90821680610cb557607f821691505b602082108103610cd557634e487b7160e01b600052602260045260246000fd5b50919050565b634e487b7160e01b600052601160045260246000fd5b80820180821115610d0457610d04610cdb565b92915050565b601f821115610d5457600081815260208120601f850160051c81016020861015610d315750805b601f850160051c820191505b81811015610d5057828155600101610d3d565b5050505b505050565b815167ffffffffffffffff811115610d7357610d73610b1b565b610d8781610d818454610ca1565b84610d0a565b602080601f831160018114610dbc5760008415610da45750858301515b600019600386901b1c1916600185901b178555610d50565b600085815260208120601f198616915b82811015610deb57888601518255948401946001909101908401610dcc565b5085821015610e095787850151600019600388901b60f8161c191681555b5050505050600190811b01905550565b600060018201610e2b57610e2b610cdb565b5060010190565b604081526000610e456040830185610a80565b90508260208301529392505050565b60008251610e66818460208701610a5c565b9190910192915050565b604081526000610e836040830185610a80565b90508215156020830152939250505056fea2646970667358221220ab4f0e48472ca8a6ed9f6e6ccb299869417aecb45f0c53f766ab7bdcca97a38864736f6c63430008140033",
  "devdoc": {
    "kind": "dev",
    "methods": {},
    "version": 1
  },
  "userdoc": {
    "kind": "user",
    "methods": {},
    "version": 1
  },
  "storageLayout": {
    "storage": [
      {
        "astId": 25,
        "contract": "contracts/YourContract.sol:YourContract",
        "label": "nextChallengeId",
        "offset": 0,
        "slot": "0",
        "type": "t_uint256"
      },
      {
        "astId": 30,
        "contract": "contracts/YourContract.sol:YourContract",
        "label": "challenges",
        "offset": 0,
        "slot": "1",
        "type": "t_mapping(t_uint256,t_struct(Challenge)19_storage)"
      }
    ],
    "types": {
      "t_address": {
        "encoding": "inplace",
        "label": "address",
        "numberOfBytes": "20"
      },
      "t_bool": {
        "encoding": "inplace",
        "label": "bool",
        "numberOfBytes": "1"
      },
      "t_bytes32": {
        "encoding": "inplace",
        "label": "bytes32",
        "numberOfBytes": "32"
      },
      "t_mapping(t_uint256,t_struct(Challenge)19_storage)": {
        "encoding": "mapping",
        "key": "t_uint256",
        "label": "mapping(uint256 => struct YourContract.Challenge)",
        "numberOfBytes": "32",
        "value": "t_struct(Challenge)19_storage"
      },
      "t_string_storage": {
        "encoding": "bytes",
        "label": "string",
        "numberOfBytes": "32"
      },
      "t_struct(Challenge)19_storage": {
        "encoding": "inplace",
        "label": "struct YourContract.Challenge",
        "members": [
          {
            "astId": 6,
            "contract": "contracts/YourContract.sol:YourContract",
            "label": "id",
            "offset": 0,
            "slot": "0",
            "type": "t_uint256"
          },
          {
            "astId": 8,
            "contract": "contracts/YourContract.sol:YourContract",
            "label": "creator",
            "offset": 0,
            "slot": "1",
            "type": "t_address"
          },
          {
            "astId": 10,
            "contract": "contracts/YourContract.sol:YourContract",
            "label": "hashedPrompt",
            "offset": 0,
            "slot": "2",
            "type": "t_bytes32"
          },
          {
            "astId": 12,
            "contract": "contracts/YourContract.sol:YourContract",
            "label": "imageUrl",
            "offset": 0,
            "slot": "3",
            "type": "t_string_storage"
          },
          {
            "astId": 14,
            "contract": "contracts/YourContract.sol:YourContract",
            "label": "prizePool",
            "offset": 0,
            "slot": "4",
            "type": "t_uint256"
          },
          {
            "astId": 16,
            "contract": "contracts/YourContract.sol:YourContract",
            "label": "isActive",
            "offset": 0,
            "slot": "5",
            "type": "t_bool"
          },
          {
            "astId": 18,
            "contract": "contracts/YourContract.sol:YourContract",
            "label": "creationTime",
            "offset": 0,
            "slot": "6",
            "type": "t_uint256"
          }
        ],
        "numberOfBytes": "224"
      },
      "t_uint256": {
        "encoding": "inplace",
        "label": "uint256",
        "numberOfBytes": "32"
      }
    }
  }
}